{
  "contractName": "Bank",
  "abi": [
    {
      "inputs": [],
      "stateMutability": "nonpayable",
      "type": "constructor"
    },
    {
      "inputs": [],
      "name": "getBalance",
      "outputs": [
        {
          "internalType": "uint256",
          "name": "",
          "type": "uint256"
        }
      ],
      "stateMutability": "view",
      "type": "function",
      "constant": true
    },
    {
      "inputs": [
        {
          "internalType": "uint256",
          "name": "bal",
          "type": "uint256"
        }
      ],
      "name": "depositBalance",
      "outputs": [],
      "stateMutability": "nonpayable",
      "type": "function"
    },
    {
      "inputs": [
        {
          "internalType": "uint256",
          "name": "bal",
          "type": "uint256"
        }
      ],
      "name": "withdrawBalance",
      "outputs": [],
      "stateMutability": "nonpayable",
      "type": "function"
    }
  ],
  "bytecode": "0x608060405234801561001057600080fd5b506064600081905550610254806100286000396000f3fe608060405234801561001057600080fd5b50600436106100415760003560e01c806312065fe0146100465780631ec5763414610064578063da76d5cd14610080575b600080fd5b61004e61009c565b60405161005b91906100ec565b60405180910390f35b61007e60048036038101906100799190610138565b6100a5565b005b61009a60048036038101906100959190610138565b6100bc565b005b60008054905090565b806000546100b39190610194565b60008190555050565b806000546100ca91906101ea565b60008190555050565b6000819050919050565b6100e6816100d3565b82525050565b600060208201905061010160008301846100dd565b92915050565b600080fd5b610115816100d3565b811461012057600080fd5b50565b6000813590506101328161010c565b92915050565b60006020828403121561014e5761014d610107565b5b600061015c84828501610123565b91505092915050565b7f4e487b7100000000000000000000000000000000000000000000000000000000600052601160045260246000fd5b600061019f826100d3565b91506101aa836100d3565b9250827fffffffffffffffffffffffffffffffffffffffffffffffffffffffffffffffff038211156101df576101de610165565b5b828201905092915050565b60006101f5826100d3565b9150610200836100d3565b92508282101561021357610212610165565b5b82820390509291505056fea2646970667358221220842b1a19aa8a8072f094565f3d5ea746d61e790a42610f3b0ef19077c5a6afb364736f6c63430008090033",
  "immutableReferences": {},
  "source": "// SPDX-License-Identifier: UNLICENSED\r\npragma solidity 0.8.9;\r\n\r\ncontract Bank\r\n{\r\n    uint amount;\r\n\r\n    constructor()\r\n    {\r\n        amount=100;\r\n    }\r\n\r\n    function getBalance() view public returns(uint)\r\n    {\r\n        return amount;\r\n    }\r\n\r\n    function depositBalance(uint bal) public\r\n    {\r\n        amount = amount+bal;\r\n    }\r\n\r\n    function withdrawBalance(uint bal) public\r\n    {\r\n        amount = amount-bal;\r\n    }\r\n}",
  "sourcePath": "C:\\Users\\hp\\Desktop\\Miniorange Works\\deploy-nft-truffle-polygon\\contracts\\bank.sol",
  "compiler": {
    "name": "solc",
    "version": "0.8.9+commit.e5eed63a.Emscripten.clang"
  },
  "schemaVersion": "3.4.10",
  "updatedAt": "2022-09-27T05:55:18.136Z",
  "networkType": "ethereum",
  "devdoc": {
    "kind": "dev",
    "methods": {},
    "version": 1
  },
  "userdoc": {
    "kind": "user",
    "methods": {},
    "version": 1
  }
}