{
  "contractName": "MyNft",
  "abi": [
    {
      "inputs": [],
      "stateMutability": "payable",
      "type": "constructor",
      "payable": true
    },
    {
      "anonymous": false,
      "inputs": [
        {
          "indexed": true,
          "internalType": "address",
          "name": "owner",
          "type": "address"
        },
        {
          "indexed": true,
          "internalType": "address",
          "name": "approved",
          "type": "address"
        },
        {
          "indexed": true,
          "internalType": "uint256",
          "name": "tokenId",
          "type": "uint256"
        }
      ],
      "name": "Approval",
      "type": "event"
    },
    {
      "anonymous": false,
      "inputs": [
        {
          "indexed": true,
          "internalType": "address",
          "name": "owner",
          "type": "address"
        },
        {
          "indexed": true,
          "internalType": "address",
          "name": "operator",
          "type": "address"
        },
        {
          "indexed": false,
          "internalType": "bool",
          "name": "approved",
          "type": "bool"
        }
      ],
      "name": "ApprovalForAll",
      "type": "event"
    },
    {
      "anonymous": false,
      "inputs": [
        {
          "indexed": true,
          "internalType": "address",
          "name": "previousOwner",
          "type": "address"
        },
        {
          "indexed": true,
          "internalType": "address",
          "name": "newOwner",
          "type": "address"
        }
      ],
      "name": "OwnershipTransferred",
      "type": "event"
    },
    {
      "anonymous": false,
      "inputs": [
        {
          "indexed": true,
          "internalType": "address",
          "name": "from",
          "type": "address"
        },
        {
          "indexed": true,
          "internalType": "address",
          "name": "to",
          "type": "address"
        },
        {
          "indexed": true,
          "internalType": "uint256",
          "name": "tokenId",
          "type": "uint256"
        }
      ],
      "name": "Transfer",
      "type": "event"
    },
    {
      "inputs": [
        {
          "internalType": "address",
          "name": "to",
          "type": "address"
        },
        {
          "internalType": "uint256",
          "name": "tokenId",
          "type": "uint256"
        }
      ],
      "name": "approve",
      "outputs": [],
      "stateMutability": "nonpayable",
      "type": "function"
    },
    {
      "inputs": [
        {
          "internalType": "address",
          "name": "owner",
          "type": "address"
        }
      ],
      "name": "balanceOf",
      "outputs": [
        {
          "internalType": "uint256",
          "name": "",
          "type": "uint256"
        }
      ],
      "stateMutability": "view",
      "type": "function",
      "constant": true
    },
    {
      "inputs": [
        {
          "internalType": "uint256",
          "name": "tokenId",
          "type": "uint256"
        }
      ],
      "name": "getApproved",
      "outputs": [
        {
          "internalType": "address",
          "name": "",
          "type": "address"
        }
      ],
      "stateMutability": "view",
      "type": "function",
      "constant": true
    },
    {
      "inputs": [
        {
          "internalType": "address",
          "name": "owner",
          "type": "address"
        },
        {
          "internalType": "address",
          "name": "operator",
          "type": "address"
        }
      ],
      "name": "isApprovedForAll",
      "outputs": [
        {
          "internalType": "bool",
          "name": "",
          "type": "bool"
        }
      ],
      "stateMutability": "view",
      "type": "function",
      "constant": true
    },
    {
      "inputs": [],
      "name": "isMintEnabled",
      "outputs": [
        {
          "internalType": "bool",
          "name": "",
          "type": "bool"
        }
      ],
      "stateMutability": "view",
      "type": "function",
      "constant": true
    },
    {
      "inputs": [],
      "name": "maxSupply",
      "outputs": [
        {
          "internalType": "uint256",
          "name": "",
          "type": "uint256"
        }
      ],
      "stateMutability": "view",
      "type": "function",
      "constant": true
    },
    {
      "inputs": [],
      "name": "mintPrice",
      "outputs": [
        {
          "internalType": "uint256",
          "name": "",
          "type": "uint256"
        }
      ],
      "stateMutability": "view",
      "type": "function",
      "constant": true
    },
    {
      "inputs": [
        {
          "internalType": "address",
          "name": "",
          "type": "address"
        }
      ],
      "name": "mintedWallets",
      "outputs": [
        {
          "internalType": "uint256",
          "name": "",
          "type": "uint256"
        }
      ],
      "stateMutability": "view",
      "type": "function",
      "constant": true
    },
    {
      "inputs": [],
      "name": "name",
      "outputs": [
        {
          "internalType": "string",
          "name": "",
          "type": "string"
        }
      ],
      "stateMutability": "view",
      "type": "function",
      "constant": true
    },
    {
      "inputs": [],
      "name": "owner",
      "outputs": [
        {
          "internalType": "address",
          "name": "",
          "type": "address"
        }
      ],
      "stateMutability": "view",
      "type": "function",
      "constant": true
    },
    {
      "inputs": [
        {
          "internalType": "uint256",
          "name": "tokenId",
          "type": "uint256"
        }
      ],
      "name": "ownerOf",
      "outputs": [
        {
          "internalType": "address",
          "name": "",
          "type": "address"
        }
      ],
      "stateMutability": "view",
      "type": "function",
      "constant": true
    },
    {
      "inputs": [],
      "name": "renounceOwnership",
      "outputs": [],
      "stateMutability": "nonpayable",
      "type": "function"
    },
    {
      "inputs": [
        {
          "internalType": "address",
          "name": "from",
          "type": "address"
        },
        {
          "internalType": "address",
          "name": "to",
          "type": "address"
        },
        {
          "internalType": "uint256",
          "name": "tokenId",
          "type": "uint256"
        }
      ],
      "name": "safeTransferFrom",
      "outputs": [],
      "stateMutability": "nonpayable",
      "type": "function"
    },
    {
      "inputs": [
        {
          "internalType": "address",
          "name": "from",
          "type": "address"
        },
        {
          "internalType": "address",
          "name": "to",
          "type": "address"
        },
        {
          "internalType": "uint256",
          "name": "tokenId",
          "type": "uint256"
        },
        {
          "internalType": "bytes",
          "name": "data",
          "type": "bytes"
        }
      ],
      "name": "safeTransferFrom",
      "outputs": [],
      "stateMutability": "nonpayable",
      "type": "function"
    },
    {
      "inputs": [
        {
          "internalType": "address",
          "name": "operator",
          "type": "address"
        },
        {
          "internalType": "bool",
          "name": "approved",
          "type": "bool"
        }
      ],
      "name": "setApprovalForAll",
      "outputs": [],
      "stateMutability": "nonpayable",
      "type": "function"
    },
    {
      "inputs": [
        {
          "internalType": "bytes4",
          "name": "interfaceId",
          "type": "bytes4"
        }
      ],
      "name": "supportsInterface",
      "outputs": [
        {
          "internalType": "bool",
          "name": "",
          "type": "bool"
        }
      ],
      "stateMutability": "view",
      "type": "function",
      "constant": true
    },
    {
      "inputs": [],
      "name": "symbol",
      "outputs": [
        {
          "internalType": "string",
          "name": "",
          "type": "string"
        }
      ],
      "stateMutability": "view",
      "type": "function",
      "constant": true
    },
    {
      "inputs": [
        {
          "internalType": "uint256",
          "name": "tokenId",
          "type": "uint256"
        }
      ],
      "name": "tokenURI",
      "outputs": [
        {
          "internalType": "string",
          "name": "",
          "type": "string"
        }
      ],
      "stateMutability": "view",
      "type": "function",
      "constant": true
    },
    {
      "inputs": [],
      "name": "totalSupply",
      "outputs": [
        {
          "internalType": "uint256",
          "name": "",
          "type": "uint256"
        }
      ],
      "stateMutability": "view",
      "type": "function",
      "constant": true
    },
    {
      "inputs": [
        {
          "internalType": "address",
          "name": "from",
          "type": "address"
        },
        {
          "internalType": "address",
          "name": "to",
          "type": "address"
        },
        {
          "internalType": "uint256",
          "name": "tokenId",
          "type": "uint256"
        }
      ],
      "name": "transferFrom",
      "outputs": [],
      "stateMutability": "nonpayable",
      "type": "function"
    },
    {
      "inputs": [
        {
          "internalType": "address",
          "name": "newOwner",
          "type": "address"
        }
      ],
      "name": "transferOwnership",
      "outputs": [],
      "stateMutability": "nonpayable",
      "type": "function"
    },
    {
      "inputs": [],
      "name": "toggleIsMinitEnabled",
      "outputs": [],
      "stateMutability": "nonpayable",
      "type": "function"
    },
    {
      "inputs": [
        {
          "internalType": "uint256",
          "name": "_maxSupply",
          "type": "uint256"
        }
      ],
      "name": "setMaxSupply",
      "outputs": [],
      "stateMutability": "nonpayable",
      "type": "function"
    },
    {
      "inputs": [],
      "name": "mint",
      "outputs": [],
      "stateMutability": "payable",
      "type": "function",
      "payable": true
    },
    {
      "inputs": [
        {
          "internalType": "address",
          "name": "_from",
          "type": "address"
        },
        {
          "internalType": "address",
          "name": "_to",
          "type": "address"
        },
        {
          "internalType": "uint256",
          "name": "_tokenId",
          "type": "uint256"
        }
      ],
      "name": "tranferToken",
      "outputs": [],
      "stateMutability": "nonpayable",
      "type": "function"
    }
  ],
  "bytecode": "0x608060405266038d7ea4c680006007556040518060400160405280600b81526020017f5072696e6365204d696e740000000000000000000000000000000000000000008152506040518060400160405280600a81526020017f5052494e43454d494e5400000000000000000000000000000000000000000000815250816000908051906020019062000093929190620001ab565b508060019080519060200190620000ac929190620001ab565b505050620000cf620000c3620000dd60201b60201c565b620000e560201b60201c565b6002600981905550620002c0565b600033905090565b6000600660009054906101000a900473ffffffffffffffffffffffffffffffffffffffff16905081600660006101000a81548173ffffffffffffffffffffffffffffffffffffffff021916908373ffffffffffffffffffffffffffffffffffffffff1602179055508173ffffffffffffffffffffffffffffffffffffffff168173ffffffffffffffffffffffffffffffffffffffff167f8be0079c531659141344cd1fd0a4f28419497f9722a3daafe3b4186f6b6457e060405160405180910390a35050565b828054620001b9906200028a565b90600052602060002090601f016020900481019282620001dd576000855562000229565b82601f10620001f857805160ff191683800117855562000229565b8280016001018555821562000229579182015b82811115620002285782518255916020019190600101906200020b565b5b5090506200023891906200023c565b5090565b5b80821115620002575760008160009055506001016200023d565b5090565b7f4e487b7100000000000000000000000000000000000000000000000000000000600052602260045260246000fd5b60006002820490506001821680620002a357607f821691505b60208210811415620002ba57620002b96200025b565b5b50919050565b612eeb80620002d06000396000f3fe6080604052600436106101665760003560e01c80636f8b44b0116100d1578063a22cb4651161008a578063c87b56dd11610064578063c87b56dd146104f5578063d5abeb0114610532578063e985e9c51461055d578063f2fde38b1461059a57610166565b8063a22cb46514610466578063ada7c4ed1461048f578063b88d4fde146104cc57610166565b80636f8b44b01461036a57806370a0823114610393578063715018a6146103d05780638da5cb5b146103e757806395d89b4114610412578063a1ff07581461043d57610166565b80631e31a599116101235780631e31a5991461026e57806323b872dd14610285578063346de50a146102ae57806342842e0e146102d95780636352211e146103025780636817c76c1461033f57610166565b806301ffc9a71461016b57806306fdde03146101a8578063081812fc146101d3578063095ea7b3146102105780631249c58b1461023957806318160ddd14610243575b600080fd5b34801561017757600080fd5b50610192600480360381019061018d9190611d9c565b6105c3565b60405161019f9190611de4565b60405180910390f35b3480156101b457600080fd5b506101bd6106a5565b6040516101ca9190611e98565b60405180910390f35b3480156101df57600080fd5b506101fa60048036038101906101f59190611ef0565b610737565b6040516102079190611f5e565b60405180910390f35b34801561021c57600080fd5b5061023760048036038101906102329190611fa5565b61077d565b005b610241610895565b005b34801561024f57600080fd5b50610258610a71565b6040516102659190611ff4565b60405180910390f35b34801561027a57600080fd5b50610283610a77565b005b34801561029157600080fd5b506102ac60048036038101906102a7919061200f565b610aab565b005b3480156102ba57600080fd5b506102c3610b0b565b6040516102d09190611de4565b60405180910390f35b3480156102e557600080fd5b5061030060048036038101906102fb919061200f565b610b1e565b005b34801561030e57600080fd5b5061032960048036038101906103249190611ef0565b610b3e565b6040516103369190611f5e565b60405180910390f35b34801561034b57600080fd5b50610354610bf0565b6040516103619190611ff4565b60405180910390f35b34801561037657600080fd5b50610391600480360381019061038c9190611ef0565b610bf6565b005b34801561039f57600080fd5b506103ba60048036038101906103b59190612062565b610c08565b6040516103c79190611ff4565b60405180910390f35b3480156103dc57600080fd5b506103e5610cc0565b005b3480156103f357600080fd5b506103fc610cd4565b6040516104099190611f5e565b60405180910390f35b34801561041e57600080fd5b50610427610cfe565b6040516104349190611e98565b60405180910390f35b34801561044957600080fd5b50610464600480360381019061045f919061200f565b610d90565b005b34801561047257600080fd5b5061048d600480360381019061048891906120bb565b610da0565b005b34801561049b57600080fd5b506104b660048036038101906104b19190612062565b610db6565b6040516104c39190611ff4565b60405180910390f35b3480156104d857600080fd5b506104f360048036038101906104ee9190612230565b610dce565b005b34801561050157600080fd5b5061051c60048036038101906105179190611ef0565b610e30565b6040516105299190611e98565b60405180910390f35b34801561053e57600080fd5b50610547610e98565b6040516105549190611ff4565b60405180910390f35b34801561056957600080fd5b50610584600480360381019061057f91906122b3565b610e9e565b6040516105919190611de4565b60405180910390f35b3480156105a657600080fd5b506105c160048036038101906105bc9190612062565b610f32565b005b60007f80ac58cd000000000000000000000000000000000000000000000000000000007bffffffffffffffffffffffffffffffffffffffffffffffffffffffff1916827bffffffffffffffffffffffffffffffffffffffffffffffffffffffff1916148061068e57507f5b5e139f000000000000000000000000000000000000000000000000000000007bffffffffffffffffffffffffffffffffffffffffffffffffffffffff1916827bffffffffffffffffffffffffffffffffffffffffffffffffffffffff1916145b8061069e575061069d82610fb6565b5b9050919050565b6060600080546106b490612322565b80601f01602080910402602001604051908101604052809291908181526020018280546106e090612322565b801561072d5780601f106107025761010080835404028352916020019161072d565b820191906000526020600020905b81548152906001019060200180831161071057829003601f168201915b5050505050905090565b600061074282611020565b6004600083815260200190815260200160002060009054906101000a900473ffffffffffffffffffffffffffffffffffffffff169050919050565b600061078882610b3e565b90508073ffffffffffffffffffffffffffffffffffffffff168373ffffffffffffffffffffffffffffffffffffffff1614156107f9576040517f08c379a00000000000000000000000000000000000000000000000000000000081526004016107f0906123c6565b60405180910390fd5b8073ffffffffffffffffffffffffffffffffffffffff1661081861106b565b73ffffffffffffffffffffffffffffffffffffffff16148061084757506108468161084161106b565b610e9e565b5b610886576040517f08c379a000000000000000000000000000000000000000000000000000000000815260040161087d90612458565b60405180910390fd5b6108908383611073565b505050565b600a60009054906101000a900460ff166108e4576040517f08c379a00000000000000000000000000000000000000000000000000000000081526004016108db906124c4565b60405180910390fd5b6001600b60003373ffffffffffffffffffffffffffffffffffffffff1673ffffffffffffffffffffffffffffffffffffffff1681526020019081526020016000205410610966576040517f08c379a000000000000000000000000000000000000000000000000000000000815260040161095d90612530565b60405180910390fd5b60075434146109aa576040517f08c379a00000000000000000000000000000000000000000000000000000000081526004016109a19061259c565b60405180910390fd5b600854600954116109f0576040517f08c379a00000000000000000000000000000000000000000000000000000000081526004016109e790612608565b60405180910390fd5b600b60003373ffffffffffffffffffffffffffffffffffffffff1673ffffffffffffffffffffffffffffffffffffffff1681526020019081526020016000206000815480929190610a4090612657565b919050555060086000815480929190610a5890612657565b919050555060006008549050610a6e338261112c565b50565b60085481565b610a7f61114a565b600a60009054906101000a900460ff1615600a60006101000a81548160ff021916908315150217905550565b610abc610ab661106b565b826111c8565b610afb576040517f08c379a0000000000000000000000000000000000000000000000000000000008152600401610af290612712565b60405180910390fd5b610b0683838361125d565b505050565b600a60009054906101000a900460ff1681565b610b3983838360405180602001604052806000815250610dce565b505050565b6000806002600084815260200190815260200160002060009054906101000a900473ffffffffffffffffffffffffffffffffffffffff169050600073ffffffffffffffffffffffffffffffffffffffff168173ffffffffffffffffffffffffffffffffffffffff161415610be7576040517f08c379a0000000000000000000000000000000000000000000000000000000008152600401610bde9061277e565b60405180910390fd5b80915050919050565b60075481565b610bfe61114a565b8060098190555050565b60008073ffffffffffffffffffffffffffffffffffffffff168273ffffffffffffffffffffffffffffffffffffffff161415610c79576040517f08c379a0000000000000000000000000000000000000000000000000000000008152600401610c7090612810565b60405180910390fd5b600360008373ffffffffffffffffffffffffffffffffffffffff1673ffffffffffffffffffffffffffffffffffffffff168152602001908152602001600020549050919050565b610cc861114a565b610cd260006114c4565b565b6000600660009054906101000a900473ffffffffffffffffffffffffffffffffffffffff16905090565b606060018054610d0d90612322565b80601f0160208091040260200160405190810160405280929190818152602001828054610d3990612322565b8015610d865780601f10610d5b57610100808354040283529160200191610d86565b820191906000526020600020905b815481529060010190602001808311610d6957829003601f168201915b5050505050905090565b610d9b83838361125d565b505050565b610db2610dab61106b565b838361158a565b5050565b600b6020528060005260406000206000915090505481565b610ddf610dd961106b565b836111c8565b610e1e576040517f08c379a0000000000000000000000000000000000000000000000000000000008152600401610e1590612712565b60405180910390fd5b610e2a848484846116f7565b50505050565b6060610e3b82611020565b6000610e45611753565b90506000815111610e655760405180602001604052806000815250610e90565b80610e6f8461176a565b604051602001610e8092919061286c565b6040516020818303038152906040525b915050919050565b60095481565b6000600560008473ffffffffffffffffffffffffffffffffffffffff1673ffffffffffffffffffffffffffffffffffffffff16815260200190815260200160002060008373ffffffffffffffffffffffffffffffffffffffff1673ffffffffffffffffffffffffffffffffffffffff16815260200190815260200160002060009054906101000a900460ff16905092915050565b610f3a61114a565b600073ffffffffffffffffffffffffffffffffffffffff168173ffffffffffffffffffffffffffffffffffffffff161415610faa576040517f08c379a0000000000000000000000000000000000000000000000000000000008152600401610fa190612902565b60405180910390fd5b610fb3816114c4565b50565b60007f01ffc9a7000000000000000000000000000000000000000000000000000000007bffffffffffffffffffffffffffffffffffffffffffffffffffffffff1916827bffffffffffffffffffffffffffffffffffffffffffffffffffffffff1916149050919050565b611029816118cb565b611068576040517f08c379a000000000000000000000000000000000000000000000000000000000815260040161105f9061277e565b60405180910390fd5b50565b600033905090565b816004600083815260200190815260200160002060006101000a81548173ffffffffffffffffffffffffffffffffffffffff021916908373ffffffffffffffffffffffffffffffffffffffff160217905550808273ffffffffffffffffffffffffffffffffffffffff166110e683610b3e565b73ffffffffffffffffffffffffffffffffffffffff167f8c5be1e5ebec7d5bd14f71427d1e84f3dd0314c0f7b2291e5b200ac8c7c3b92560405160405180910390a45050565b611146828260405180602001604052806000815250611937565b5050565b61115261106b565b73ffffffffffffffffffffffffffffffffffffffff16611170610cd4565b73ffffffffffffffffffffffffffffffffffffffff16146111c6576040517f08c379a00000000000000000000000000000000000000000000000000000000081526004016111bd9061296e565b60405180910390fd5b565b6000806111d483610b3e565b90508073ffffffffffffffffffffffffffffffffffffffff168473ffffffffffffffffffffffffffffffffffffffff16148061121657506112158185610e9e565b5b8061125457508373ffffffffffffffffffffffffffffffffffffffff1661123c84610737565b73ffffffffffffffffffffffffffffffffffffffff16145b91505092915050565b8273ffffffffffffffffffffffffffffffffffffffff1661127d82610b3e565b73ffffffffffffffffffffffffffffffffffffffff16146112d3576040517f08c379a00000000000000000000000000000000000000000000000000000000081526004016112ca90612a00565b60405180910390fd5b600073ffffffffffffffffffffffffffffffffffffffff168273ffffffffffffffffffffffffffffffffffffffff161415611343576040517f08c379a000000000000000000000000000000000000000000000000000000000815260040161133a90612a92565b60405180910390fd5b61134e838383611992565b611359600082611073565b6001600360008573ffffffffffffffffffffffffffffffffffffffff1673ffffffffffffffffffffffffffffffffffffffff16815260200190815260200160002060008282546113a99190612ab2565b925050819055506001600360008473ffffffffffffffffffffffffffffffffffffffff1673ffffffffffffffffffffffffffffffffffffffff16815260200190815260200160002060008282546114009190612ae6565b92505081905550816002600083815260200190815260200160002060006101000a81548173ffffffffffffffffffffffffffffffffffffffff021916908373ffffffffffffffffffffffffffffffffffffffff160217905550808273ffffffffffffffffffffffffffffffffffffffff168473ffffffffffffffffffffffffffffffffffffffff167fddf252ad1be2c89b69c2b068fc378daa952ba7f163c4a11628f55a4df523b3ef60405160405180910390a46114bf838383611997565b505050565b6000600660009054906101000a900473ffffffffffffffffffffffffffffffffffffffff16905081600660006101000a81548173ffffffffffffffffffffffffffffffffffffffff021916908373ffffffffffffffffffffffffffffffffffffffff1602179055508173ffffffffffffffffffffffffffffffffffffffff168173ffffffffffffffffffffffffffffffffffffffff167f8be0079c531659141344cd1fd0a4f28419497f9722a3daafe3b4186f6b6457e060405160405180910390a35050565b8173ffffffffffffffffffffffffffffffffffffffff168373ffffffffffffffffffffffffffffffffffffffff1614156115f9576040517f08c379a00000000000000000000000000000000000000000000000000000000081526004016115f090612b88565b60405180910390fd5b80600560008573ffffffffffffffffffffffffffffffffffffffff1673ffffffffffffffffffffffffffffffffffffffff16815260200190815260200160002060008473ffffffffffffffffffffffffffffffffffffffff1673ffffffffffffffffffffffffffffffffffffffff16815260200190815260200160002060006101000a81548160ff0219169083151502179055508173ffffffffffffffffffffffffffffffffffffffff168373ffffffffffffffffffffffffffffffffffffffff167f17307eab39ab6107e8899845ad3d59bd9653f200f220920489ca2b5937696c31836040516116ea9190611de4565b60405180910390a3505050565b61170284848461125d565b61170e8484848461199c565b61174d576040517f08c379a000000000000000000000000000000000000000000000000000000000815260040161174490612c1a565b60405180910390fd5b50505050565b606060405180602001604052806000815250905090565b606060008214156117b2576040518060400160405280600181526020017f300000000000000000000000000000000000000000000000000000000000000081525090506118c6565b600082905060005b600082146117e45780806117cd90612657565b915050600a826117dd9190612c69565b91506117ba565b60008167ffffffffffffffff811115611800576117ff612105565b5b6040519080825280601f01601f1916602001820160405280156118325781602001600182028036833780820191505090505b5090505b600085146118bf5760018261184b9190612ab2565b9150600a8561185a9190612c9a565b60306118669190612ae6565b60f81b81838151811061187c5761187b612ccb565b5b60200101907effffffffffffffffffffffffffffffffffffffffffffffffffffffffffffff1916908160001a905350600a856118b89190612c69565b9450611836565b8093505050505b919050565b60008073ffffffffffffffffffffffffffffffffffffffff166002600084815260200190815260200160002060009054906101000a900473ffffffffffffffffffffffffffffffffffffffff1673ffffffffffffffffffffffffffffffffffffffff1614159050919050565b6119418383611b33565b61194e600084848461199c565b61198d576040517f08c379a000000000000000000000000000000000000000000000000000000000815260040161198490612c1a565b60405180910390fd5b505050565b505050565b505050565b60006119bd8473ffffffffffffffffffffffffffffffffffffffff16611d0d565b15611b26578373ffffffffffffffffffffffffffffffffffffffff1663150b7a026119e661106b565b8786866040518563ffffffff1660e01b8152600401611a089493929190612d4f565b602060405180830381600087803b158015611a2257600080fd5b505af1925050508015611a5357506040513d601f19601f82011682018060405250810190611a509190612db0565b60015b611ad6573d8060008114611a83576040519150601f19603f3d011682016040523d82523d6000602084013e611a88565b606091505b50600081511415611ace576040517f08c379a0000000000000000000000000000000000000000000000000000000008152600401611ac590612c1a565b60405180910390fd5b805181602001fd5b63150b7a0260e01b7bffffffffffffffffffffffffffffffffffffffffffffffffffffffff1916817bffffffffffffffffffffffffffffffffffffffffffffffffffffffff191614915050611b2b565b600190505b949350505050565b600073ffffffffffffffffffffffffffffffffffffffff168273ffffffffffffffffffffffffffffffffffffffff161415611ba3576040517f08c379a0000000000000000000000000000000000000000000000000000000008152600401611b9a90612e29565b60405180910390fd5b611bac816118cb565b15611bec576040517f08c379a0000000000000000000000000000000000000000000000000000000008152600401611be390612e95565b60405180910390fd5b611bf860008383611992565b6001600360008473ffffffffffffffffffffffffffffffffffffffff1673ffffffffffffffffffffffffffffffffffffffff1681526020019081526020016000206000828254611c489190612ae6565b92505081905550816002600083815260200190815260200160002060006101000a81548173ffffffffffffffffffffffffffffffffffffffff021916908373ffffffffffffffffffffffffffffffffffffffff160217905550808273ffffffffffffffffffffffffffffffffffffffff16600073ffffffffffffffffffffffffffffffffffffffff167fddf252ad1be2c89b69c2b068fc378daa952ba7f163c4a11628f55a4df523b3ef60405160405180910390a4611d0960008383611997565b5050565b6000808273ffffffffffffffffffffffffffffffffffffffff163b119050919050565b6000604051905090565b600080fd5b600080fd5b60007fffffffff0000000000000000000000000000000000000000000000000000000082169050919050565b611d7981611d44565b8114611d8457600080fd5b50565b600081359050611d9681611d70565b92915050565b600060208284031215611db257611db1611d3a565b5b6000611dc084828501611d87565b91505092915050565b60008115159050919050565b611dde81611dc9565b82525050565b6000602082019050611df96000830184611dd5565b92915050565b600081519050919050565b600082825260208201905092915050565b60005b83811015611e39578082015181840152602081019050611e1e565b83811115611e48576000848401525b50505050565b6000601f19601f8301169050919050565b6000611e6a82611dff565b611e748185611e0a565b9350611e84818560208601611e1b565b611e8d81611e4e565b840191505092915050565b60006020820190508181036000830152611eb28184611e5f565b905092915050565b6000819050919050565b611ecd81611eba565b8114611ed857600080fd5b50565b600081359050611eea81611ec4565b92915050565b600060208284031215611f0657611f05611d3a565b5b6000611f1484828501611edb565b91505092915050565b600073ffffffffffffffffffffffffffffffffffffffff82169050919050565b6000611f4882611f1d565b9050919050565b611f5881611f3d565b82525050565b6000602082019050611f736000830184611f4f565b92915050565b611f8281611f3d565b8114611f8d57600080fd5b50565b600081359050611f9f81611f79565b92915050565b60008060408385031215611fbc57611fbb611d3a565b5b6000611fca85828601611f90565b9250506020611fdb85828601611edb565b9150509250929050565b611fee81611eba565b82525050565b60006020820190506120096000830184611fe5565b92915050565b60008060006060848603121561202857612027611d3a565b5b600061203686828701611f90565b935050602061204786828701611f90565b925050604061205886828701611edb565b9150509250925092565b60006020828403121561207857612077611d3a565b5b600061208684828501611f90565b91505092915050565b61209881611dc9565b81146120a357600080fd5b50565b6000813590506120b58161208f565b92915050565b600080604083850312156120d2576120d1611d3a565b5b60006120e085828601611f90565b92505060206120f1858286016120a6565b9150509250929050565b600080fd5b600080fd5b7f4e487b7100000000000000000000000000000000000000000000000000000000600052604160045260246000fd5b61213d82611e4e565b810181811067ffffffffffffffff8211171561215c5761215b612105565b5b80604052505050565b600061216f611d30565b905061217b8282612134565b919050565b600067ffffffffffffffff82111561219b5761219a612105565b5b6121a482611e4e565b9050602081019050919050565b82818337600083830152505050565b60006121d36121ce84612180565b612165565b9050828152602081018484840111156121ef576121ee612100565b5b6121fa8482856121b1565b509392505050565b600082601f830112612217576122166120fb565b5b81356122278482602086016121c0565b91505092915050565b6000806000806080858703121561224a57612249611d3a565b5b600061225887828801611f90565b945050602061226987828801611f90565b935050604061227a87828801611edb565b925050606085013567ffffffffffffffff81111561229b5761229a611d3f565b5b6122a787828801612202565b91505092959194509250565b600080604083850312156122ca576122c9611d3a565b5b60006122d885828601611f90565b92505060206122e985828601611f90565b9150509250929050565b7f4e487b7100000000000000000000000000000000000000000000000000000000600052602260045260246000fd5b6000600282049050600182168061233a57607f821691505b6020821081141561234e5761234d6122f3565b5b50919050565b7f4552433732313a20617070726f76616c20746f2063757272656e74206f776e6560008201527f7200000000000000000000000000000000000000000000000000000000000000602082015250565b60006123b0602183611e0a565b91506123bb82612354565b604082019050919050565b600060208201905081810360008301526123df816123a3565b9050919050565b7f4552433732313a20617070726f76652063616c6c6572206973206e6f7420746f60008201527f6b656e206f776e6572206e6f7220617070726f76656420666f7220616c6c0000602082015250565b6000612442603e83611e0a565b915061244d826123e6565b604082019050919050565b6000602082019050818103600083015261247181612435565b9050919050565b7f6d696e74696e67206e6f7420656e61626c656400000000000000000000000000600082015250565b60006124ae601383611e0a565b91506124b982612478565b602082019050919050565b600060208201905081810360008301526124dd816124a1565b9050919050565b7f65786365656473206d6178207065722077616c6c657400000000000000000000600082015250565b600061251a601683611e0a565b9150612525826124e4565b602082019050919050565b600060208201905081810360008301526125498161250d565b9050919050565b7f77726f6e672076616c7565000000000000000000000000000000000000000000600082015250565b6000612586600b83611e0a565b915061259182612550565b602082019050919050565b600060208201905081810360008301526125b581612579565b9050919050565b7f736f6c64206f7574000000000000000000000000000000000000000000000000600082015250565b60006125f2600883611e0a565b91506125fd826125bc565b602082019050919050565b60006020820190508181036000830152612621816125e5565b9050919050565b7f4e487b7100000000000000000000000000000000000000000000000000000000600052601160045260246000fd5b600061266282611eba565b91507fffffffffffffffffffffffffffffffffffffffffffffffffffffffffffffffff82141561269557612694612628565b5b600182019050919050565b7f4552433732313a2063616c6c6572206973206e6f7420746f6b656e206f776e6560008201527f72206e6f7220617070726f766564000000000000000000000000000000000000602082015250565b60006126fc602e83611e0a565b9150612707826126a0565b604082019050919050565b6000602082019050818103600083015261272b816126ef565b9050919050565b7f4552433732313a20696e76616c696420746f6b656e2049440000000000000000600082015250565b6000612768601883611e0a565b915061277382612732565b602082019050919050565b600060208201905081810360008301526127978161275b565b9050919050565b7f4552433732313a2061646472657373207a65726f206973206e6f74206120766160008201527f6c6964206f776e65720000000000000000000000000000000000000000000000602082015250565b60006127fa602983611e0a565b91506128058261279e565b604082019050919050565b60006020820190508181036000830152612829816127ed565b9050919050565b600081905092915050565b600061284682611dff565b6128508185612830565b9350612860818560208601611e1b565b80840191505092915050565b6000612878828561283b565b9150612884828461283b565b91508190509392505050565b7f4f776e61626c653a206e6577206f776e657220697320746865207a65726f206160008201527f6464726573730000000000000000000000000000000000000000000000000000602082015250565b60006128ec602683611e0a565b91506128f782612890565b604082019050919050565b6000602082019050818103600083015261291b816128df565b9050919050565b7f4f776e61626c653a2063616c6c6572206973206e6f7420746865206f776e6572600082015250565b6000612958602083611e0a565b915061296382612922565b602082019050919050565b600060208201905081810360008301526129878161294b565b9050919050565b7f4552433732313a207472616e736665722066726f6d20696e636f72726563742060008201527f6f776e6572000000000000000000000000000000000000000000000000000000602082015250565b60006129ea602583611e0a565b91506129f58261298e565b604082019050919050565b60006020820190508181036000830152612a19816129dd565b9050919050565b7f4552433732313a207472616e7366657220746f20746865207a65726f2061646460008201527f7265737300000000000000000000000000000000000000000000000000000000602082015250565b6000612a7c602483611e0a565b9150612a8782612a20565b604082019050919050565b60006020820190508181036000830152612aab81612a6f565b9050919050565b6000612abd82611eba565b9150612ac883611eba565b925082821015612adb57612ada612628565b5b828203905092915050565b6000612af182611eba565b9150612afc83611eba565b9250827fffffffffffffffffffffffffffffffffffffffffffffffffffffffffffffffff03821115612b3157612b30612628565b5b828201905092915050565b7f4552433732313a20617070726f766520746f2063616c6c657200000000000000600082015250565b6000612b72601983611e0a565b9150612b7d82612b3c565b602082019050919050565b60006020820190508181036000830152612ba181612b65565b9050919050565b7f4552433732313a207472616e7366657220746f206e6f6e20455243373231526560008201527f63656976657220696d706c656d656e7465720000000000000000000000000000602082015250565b6000612c04603283611e0a565b9150612c0f82612ba8565b604082019050919050565b60006020820190508181036000830152612c3381612bf7565b9050919050565b7f4e487b7100000000000000000000000000000000000000000000000000000000600052601260045260246000fd5b6000612c7482611eba565b9150612c7f83611eba565b925082612c8f57612c8e612c3a565b5b828204905092915050565b6000612ca582611eba565b9150612cb083611eba565b925082612cc057612cbf612c3a565b5b828206905092915050565b7f4e487b7100000000000000000000000000000000000000000000000000000000600052603260045260246000fd5b600081519050919050565b600082825260208201905092915050565b6000612d2182612cfa565b612d2b8185612d05565b9350612d3b818560208601611e1b565b612d4481611e4e565b840191505092915050565b6000608082019050612d646000830187611f4f565b612d716020830186611f4f565b612d7e6040830185611fe5565b8181036060830152612d908184612d16565b905095945050505050565b600081519050612daa81611d70565b92915050565b600060208284031215612dc657612dc5611d3a565b5b6000612dd484828501612d9b565b91505092915050565b7f4552433732313a206d696e7420746f20746865207a65726f2061646472657373600082015250565b6000612e13602083611e0a565b9150612e1e82612ddd565b602082019050919050565b60006020820190508181036000830152612e4281612e06565b9050919050565b7f4552433732313a20746f6b656e20616c7265616479206d696e74656400000000600082015250565b6000612e7f601c83611e0a565b9150612e8a82612e49565b602082019050919050565b60006020820190508181036000830152612eae81612e72565b905091905056fea2646970667358221220cec8c2bee1085ace0f9fb0890480101686fda432b8290ca095c6dabaaea01eeb64736f6c63430008090033",
  "immutableReferences": {},
  "source": "// SPDX-License-Identifier: MIT\r\npragma solidity >=0.5.0 <0.9.0;\r\n\r\nimport \"@openzeppelin/contracts/token/ERC721/ERC721.sol\";\r\nimport \"@openzeppelin/contracts/access/Ownable.sol\";\r\n\r\ncontract MyNft is ERC721, Ownable{\r\n    uint public mintPrice = 0.001 ether;\r\n    uint public totalSupply;\r\n    uint public maxSupply;\r\n    bool public isMintEnabled;\r\n    mapping(address => uint) public mintedWallets;\r\n\r\n    constructor() payable ERC721('Prince Mint', 'PRINCEMINT'){\r\n        maxSupply=2;\r\n    }\r\n\r\n    function toggleIsMinitEnabled() external onlyOwner {\r\n        isMintEnabled = !isMintEnabled;\r\n    }\r\n\r\n    function setMaxSupply(uint _maxSupply) external onlyOwner {\r\n        maxSupply = _maxSupply;\r\n    }\r\n\r\n    function mint() external payable {\r\n        require(isMintEnabled, 'minting not enabled');\r\n        require(mintedWallets[msg.sender] < 1 , 'exceeds max per wallet');\r\n        require(msg.value == mintPrice, 'wrong value');\r\n        require(maxSupply > totalSupply , 'sold out');\r\n\r\n        mintedWallets[msg.sender]++;\r\n        totalSupply++;\r\n        uint tokenId = totalSupply;\r\n        _safeMint(msg.sender, tokenId);\r\n    }\r\n\r\n    function tranferToken(address _from , address _to , uint _tokenId) external{\r\n        _transfer(_from , _to , _tokenId);\r\n    }\r\n\r\n}\r\n",
  "sourcePath": "C:\\Users\\hp\\Desktop\\Miniorange Works\\deploy-nft-truffle-polygon\\contracts\\myNFT.sol",
  "compiler": {
    "name": "solc",
    "version": "0.8.9+commit.e5eed63a.Emscripten.clang"
  },
  "schemaVersion": "3.4.10",
  "updatedAt": "2022-09-27T05:57:38.607Z",
  "networkType": "ethereum",
  "devdoc": {
    "kind": "dev",
    "methods": {
      "approve(address,uint256)": {
        "details": "See {IERC721-approve}."
      },
      "balanceOf(address)": {
        "details": "See {IERC721-balanceOf}."
      },
      "getApproved(uint256)": {
        "details": "See {IERC721-getApproved}."
      },
      "isApprovedForAll(address,address)": {
        "details": "See {IERC721-isApprovedForAll}."
      },
      "name()": {
        "details": "See {IERC721Metadata-name}."
      },
      "owner()": {
        "details": "Returns the address of the current owner."
      },
      "ownerOf(uint256)": {
        "details": "See {IERC721-ownerOf}."
      },
      "renounceOwnership()": {
        "details": "Leaves the contract without owner. It will not be possible to call `onlyOwner` functions anymore. Can only be called by the current owner. NOTE: Renouncing ownership will leave the contract without an owner, thereby removing any functionality that is only available to the owner."
      },
      "safeTransferFrom(address,address,uint256)": {
        "details": "See {IERC721-safeTransferFrom}."
      },
      "safeTransferFrom(address,address,uint256,bytes)": {
        "details": "See {IERC721-safeTransferFrom}."
      },
      "setApprovalForAll(address,bool)": {
        "details": "See {IERC721-setApprovalForAll}."
      },
      "supportsInterface(bytes4)": {
        "details": "See {IERC165-supportsInterface}."
      },
      "symbol()": {
        "details": "See {IERC721Metadata-symbol}."
      },
      "tokenURI(uint256)": {
        "details": "See {IERC721Metadata-tokenURI}."
      },
      "transferFrom(address,address,uint256)": {
        "details": "See {IERC721-transferFrom}."
      },
      "transferOwnership(address)": {
        "details": "Transfers ownership of the contract to a new account (`newOwner`). Can only be called by the current owner."
      }
    },
    "version": 1
  },
  "userdoc": {
    "kind": "user",
    "methods": {},
    "version": 1
  }
}